:020000040800F2
:1000000008400020090300085103000851030008BC
:1000100051030008510300085103000800000000CC
:100020000000000000000000000000005103000874
:100030005103000800000000510300089902000865
:100040005103000851030008510300085103000840
:100050005103000851030008510300085103000830
:100060005103000851030008510300085103000820
:100070005103000851030008510300085103000810
:100080005103000851030008510300085103000800
:1000900051030008510300085103000851030008F0
:1000A00051030008510300085103000851030008E0
:1000B00051030008510300085103000851030008D0
:1000C00051030008510300085103000851030008C0
:1000D00051030008510300085103000851030008B0
:1000E00051030008510300080000000051030008FC
:1000F0005103000851030008510300085103000890
:10010000510300085103000851030008510300087F
:10011000510300085103000851030008510300086F
:10012000510300085103000851030008510300085F
:10013000510300085103000851030008510300084F
:1001400000000000000000000000000000000000AF
:10015000510300085103000851030008510300082F
:10016000510300085103000851030008510300081F
:10017000510300085103000851030008000000006B
:1001800051030008510300085103000851030008FF
:1001900051030008510300085103000851030008EF
:1001A00051030008510300085103000851030008DF
:1001B00051030008510300085103000851030008CF
:1001C00051030008510300085103000851030008BF
:1001D00051030008510300085103000851030008AF
:1001E000510300085103000851030008510300089F
:1001F000510300085103000851030008510300088F
:10020000510300085103000851030008510300087E
:10021000510300085103000851030008510300086E
:1002200051030008510300085103000800000000BA
:1002300051030008510300080000000051030008AA
:10024000510300085103000851030008510300083E
:10025000510300085103000851030008510300082E
:10026000510300085103000851030008510300081E
:10027000510300085103000851030008000000006A
:10028000510300085103000851030008000000005A
:0802900000000000510300080A
:10029800024A136801331360704700BF0000002052
:1002A8004FF0E0234FF6FF1200204FF400545A613C
:1002B800072298611A61104AD2F8E0346FEAD32312
:1002C8006FEAC323C2F8E034D2F8E0344FF0806319
:1002D800A2F560521360094B196801F5FA711D689F
:1002E800A942FCD85461196801F5FA711D68A94240
:1002F800FCD85061F0E700BF004002580000002021
:10030800DFF82CD00B480C490C4A002302E0D458E3
:10031800C4500433C4188C42F9D3094A094C002349
:1003280001E013600432A242FBD3FFF7B9FF704724
:1003380008400020000000200000002054030008AE
:0C0348000000002004000020FFF7FEBFB2
:0400000508000309E3
:00000001FF
